{
  "_format": "hh-sol-artifact-1",
  "contractName": "ChainBattles",
  "sourceName": "contracts/ChainBattles.sol",
  "abi": [
    {
      "inputs": [],
      "stateMutability": "nonpayable",
      "type": "constructor"
    },
    {
      "anonymous": false,
      "inputs": [
        {
          "indexed": true,
          "internalType": "address",
          "name": "owner",
          "type": "address"
        },
        {
          "indexed": true,
          "internalType": "address",
          "name": "approved",
          "type": "address"
        },
        {
          "indexed": true,
          "internalType": "uint256",
          "name": "tokenId",
          "type": "uint256"
        }
      ],
      "name": "Approval",
      "type": "event"
    },
    {
      "anonymous": false,
      "inputs": [
        {
          "indexed": true,
          "internalType": "address",
          "name": "owner",
          "type": "address"
        },
        {
          "indexed": true,
          "internalType": "address",
          "name": "operator",
          "type": "address"
        },
        {
          "indexed": false,
          "internalType": "bool",
          "name": "approved",
          "type": "bool"
        }
      ],
      "name": "ApprovalForAll",
      "type": "event"
    },
    {
      "anonymous": false,
      "inputs": [
        {
          "indexed": true,
          "internalType": "address",
          "name": "from",
          "type": "address"
        },
        {
          "indexed": true,
          "internalType": "address",
          "name": "to",
          "type": "address"
        },
        {
          "indexed": true,
          "internalType": "uint256",
          "name": "tokenId",
          "type": "uint256"
        }
      ],
      "name": "Transfer",
      "type": "event"
    },
    {
      "inputs": [
        {
          "internalType": "address",
          "name": "to",
          "type": "address"
        },
        {
          "internalType": "uint256",
          "name": "tokenId",
          "type": "uint256"
        }
      ],
      "name": "approve",
      "outputs": [],
      "stateMutability": "nonpayable",
      "type": "function"
    },
    {
      "inputs": [
        {
          "internalType": "address",
          "name": "owner",
          "type": "address"
        }
      ],
      "name": "balanceOf",
      "outputs": [
        {
          "internalType": "uint256",
          "name": "",
          "type": "uint256"
        }
      ],
      "stateMutability": "view",
      "type": "function"
    },
    {
      "inputs": [
        {
          "internalType": "uint256",
          "name": "tokenId",
          "type": "uint256"
        }
      ],
      "name": "generateCharacter",
      "outputs": [
        {
          "internalType": "string",
          "name": "",
          "type": "string"
        }
      ],
      "stateMutability": "nonpayable",
      "type": "function"
    },
    {
      "inputs": [
        {
          "internalType": "uint256",
          "name": "tokenId",
          "type": "uint256"
        }
      ],
      "name": "getApproved",
      "outputs": [
        {
          "internalType": "address",
          "name": "",
          "type": "address"
        }
      ],
      "stateMutability": "view",
      "type": "function"
    },
    {
      "inputs": [
        {
          "internalType": "uint256",
          "name": "tokenId",
          "type": "uint256"
        }
      ],
      "name": "getLevels",
      "outputs": [
        {
          "internalType": "string",
          "name": "",
          "type": "string"
        }
      ],
      "stateMutability": "view",
      "type": "function"
    },
    {
      "inputs": [
        {
          "internalType": "uint256",
          "name": "tokenId",
          "type": "uint256"
        }
      ],
      "name": "getLife",
      "outputs": [
        {
          "internalType": "string",
          "name": "",
          "type": "string"
        }
      ],
      "stateMutability": "view",
      "type": "function"
    },
    {
      "inputs": [
        {
          "internalType": "uint256",
          "name": "tokenId",
          "type": "uint256"
        }
      ],
      "name": "getSpeed",
      "outputs": [
        {
          "internalType": "string",
          "name": "",
          "type": "string"
        }
      ],
      "stateMutability": "view",
      "type": "function"
    },
    {
      "inputs": [
        {
          "internalType": "uint256",
          "name": "tokenId",
          "type": "uint256"
        }
      ],
      "name": "getStrenght",
      "outputs": [
        {
          "internalType": "string",
          "name": "",
          "type": "string"
        }
      ],
      "stateMutability": "view",
      "type": "function"
    },
    {
      "inputs": [
        {
          "internalType": "uint256",
          "name": "tokenId",
          "type": "uint256"
        }
      ],
      "name": "getTokenURI",
      "outputs": [
        {
          "internalType": "string",
          "name": "",
          "type": "string"
        }
      ],
      "stateMutability": "nonpayable",
      "type": "function"
    },
    {
      "inputs": [
        {
          "internalType": "address",
          "name": "owner",
          "type": "address"
        },
        {
          "internalType": "address",
          "name": "operator",
          "type": "address"
        }
      ],
      "name": "isApprovedForAll",
      "outputs": [
        {
          "internalType": "bool",
          "name": "",
          "type": "bool"
        }
      ],
      "stateMutability": "view",
      "type": "function"
    },
    {
      "inputs": [],
      "name": "mint",
      "outputs": [],
      "stateMutability": "nonpayable",
      "type": "function"
    },
    {
      "inputs": [],
      "name": "name",
      "outputs": [
        {
          "internalType": "string",
          "name": "",
          "type": "string"
        }
      ],
      "stateMutability": "view",
      "type": "function"
    },
    {
      "inputs": [
        {
          "internalType": "uint256",
          "name": "tokenId",
          "type": "uint256"
        }
      ],
      "name": "ownerOf",
      "outputs": [
        {
          "internalType": "address",
          "name": "",
          "type": "address"
        }
      ],
      "stateMutability": "view",
      "type": "function"
    },
    {
      "inputs": [
        {
          "internalType": "address",
          "name": "from",
          "type": "address"
        },
        {
          "internalType": "address",
          "name": "to",
          "type": "address"
        },
        {
          "internalType": "uint256",
          "name": "tokenId",
          "type": "uint256"
        }
      ],
      "name": "safeTransferFrom",
      "outputs": [],
      "stateMutability": "nonpayable",
      "type": "function"
    },
    {
      "inputs": [
        {
          "internalType": "address",
          "name": "from",
          "type": "address"
        },
        {
          "internalType": "address",
          "name": "to",
          "type": "address"
        },
        {
          "internalType": "uint256",
          "name": "tokenId",
          "type": "uint256"
        },
        {
          "internalType": "bytes",
          "name": "_data",
          "type": "bytes"
        }
      ],
      "name": "safeTransferFrom",
      "outputs": [],
      "stateMutability": "nonpayable",
      "type": "function"
    },
    {
      "inputs": [
        {
          "internalType": "address",
          "name": "operator",
          "type": "address"
        },
        {
          "internalType": "bool",
          "name": "approved",
          "type": "bool"
        }
      ],
      "name": "setApprovalForAll",
      "outputs": [],
      "stateMutability": "nonpayable",
      "type": "function"
    },
    {
      "inputs": [
        {
          "internalType": "bytes4",
          "name": "interfaceId",
          "type": "bytes4"
        }
      ],
      "name": "supportsInterface",
      "outputs": [
        {
          "internalType": "bool",
          "name": "",
          "type": "bool"
        }
      ],
      "stateMutability": "view",
      "type": "function"
    },
    {
      "inputs": [],
      "name": "symbol",
      "outputs": [
        {
          "internalType": "string",
          "name": "",
          "type": "string"
        }
      ],
      "stateMutability": "view",
      "type": "function"
    },
    {
      "inputs": [
        {
          "internalType": "uint256",
          "name": "",
          "type": "uint256"
        }
      ],
      "name": "tokenIdToWarrior",
      "outputs": [
        {
          "internalType": "uint256",
          "name": "Level",
          "type": "uint256"
        },
        {
          "internalType": "uint256",
          "name": "Strenght",
          "type": "uint256"
        },
        {
          "internalType": "uint256",
          "name": "Life",
          "type": "uint256"
        },
        {
          "internalType": "uint256",
          "name": "Speed",
          "type": "uint256"
        }
      ],
      "stateMutability": "view",
      "type": "function"
    },
    {
      "inputs": [
        {
          "internalType": "uint256",
          "name": "tokenId",
          "type": "uint256"
        }
      ],
      "name": "tokenURI",
      "outputs": [
        {
          "internalType": "string",
          "name": "",
          "type": "string"
        }
      ],
      "stateMutability": "view",
      "type": "function"
    },
    {
      "inputs": [
        {
          "internalType": "uint256",
          "name": "tokenId",
          "type": "uint256"
        }
      ],
      "name": "train",
      "outputs": [],
      "stateMutability": "nonpayable",
      "type": "function"
    },
    {
      "inputs": [
        {
          "internalType": "address",
          "name": "from",
          "type": "address"
        },
        {
          "internalType": "address",
          "name": "to",
          "type": "address"
        },
        {
          "internalType": "uint256",
          "name": "tokenId",
          "type": "uint256"
        }
      ],
      "name": "transferFrom",
      "outputs": [],
      "stateMutability": "nonpayable",
      "type": "function"
    }
  ],
  "bytecode": "0x60806040523480156200001157600080fd5b506040518060400160405280600d81526020017f436861696e20426174746c6573000000000000000000000000000000000000008152506040518060400160405280600581526020017f4342544c53000000000000000000000000000000000000000000000000000000815250816000908051906020019062000096929190620000b8565b508060019080519060200190620000af929190620000b8565b505050620001cd565b828054620000c69062000197565b90600052602060002090601f016020900481019282620000ea576000855562000136565b82601f106200010557805160ff191683800117855562000136565b8280016001018555821562000136579182015b828111156200013557825182559160200191906001019062000118565b5b50905062000145919062000149565b5090565b5b80821115620001645760008160009055506001016200014a565b5090565b7f4e487b7100000000000000000000000000000000000000000000000000000000600052602260045260246000fd5b60006002820490506001821680620001b057607f821691505b60208210811415620001c757620001c662000168565b5b50919050565b613e2c80620001dd6000396000f3fe608060405234801561001057600080fd5b50600436106101425760003560e01c806345fc2fd5116100b857806395d89b411161007c57806395d89b41146103c2578063a22cb465146103e0578063b88d4fde146103fc578063c87b56dd14610418578063e985e9c514610448578063f43785f91461047857610142565b806345fc2fd5146102cf5780634b93f753146102ff5780636352211e1461032f578063685336251461035f57806370a082311461039257610142565b806311251f1c1161010a57806311251f1c146102115780631249c58b1461024157806323b872dd1461024b578063368004ed146102675780633bb3a24d1461028357806342842e0e146102b357610142565b806301ffc9a71461014757806306fdde0314610177578063081812fc14610195578063095ea7b3146101c55780630daefed5146101e1575b600080fd5b610161600480360381019061015c9190611fb0565b6104a8565b60405161016e9190611ff8565b60405180910390f35b61017f61058a565b60405161018c91906120ac565b60405180910390f35b6101af60048036038101906101aa9190612104565b61061c565b6040516101bc9190612172565b60405180910390f35b6101df60048036038101906101da91906121b9565b6106a1565b005b6101fb60048036038101906101f69190612104565b6107b9565b60405161020891906120ac565b60405180910390f35b61022b60048036038101906102269190612104565b610835565b60405161023891906120ac565b60405180910390f35b610249610863565b005b610265600480360381019061026091906121f9565b6108fd565b005b610281600480360381019061027c9190612104565b61095d565b005b61029d60048036038101906102989190612104565b610a3d565b6040516102aa91906120ac565b60405180910390f35b6102cd60048036038101906102c891906121f9565b610aa5565b005b6102e960048036038101906102e49190612104565b610ac5565b6040516102f691906120ac565b60405180910390f35b61031960048036038101906103149190612104565b610af3565b60405161032691906120ac565b60405180910390f35b61034960048036038101906103449190612104565b610b21565b6040516103569190612172565b60405180910390f35b61037960048036038101906103749190612104565b610bd3565b604051610389949392919061225b565b60405180910390f35b6103ac60048036038101906103a791906122a0565b610c03565b6040516103b991906122cd565b60405180910390f35b6103ca610cbb565b6040516103d791906120ac565b60405180910390f35b6103fa60048036038101906103f59190612314565b610d4d565b005b61041660048036038101906104119190612489565b610d63565b005b610432600480360381019061042d9190612104565b610dc5565b60405161043f91906120ac565b60405180910390f35b610462600480360381019061045d919061250c565b610f17565b60405161046f9190611ff8565b60405180910390f35b610492600480360381019061048d9190612104565b610fab565b60405161049f91906120ac565b60405180910390f35b60007f80ac58cd000000000000000000000000000000000000000000000000000000007bffffffffffffffffffffffffffffffffffffffffffffffffffffffff1916827bffffffffffffffffffffffffffffffffffffffffffffffffffffffff1916148061057357507f5b5e139f000000000000000000000000000000000000000000000000000000007bffffffffffffffffffffffffffffffffffffffffffffffffffffffff1916827bffffffffffffffffffffffffffffffffffffffffffffffffffffffff1916145b80610583575061058282610fd9565b5b9050919050565b6060600080546105999061257b565b80601f01602080910402602001604051908101604052809291908181526020018280546105c59061257b565b80156106125780601f106105e757610100808354040283529160200191610612565b820191906000526020600020905b8154815290600101906020018083116105f557829003601f168201915b5050505050905090565b600061062782611043565b610666576040517f08c379a000000000000000000000000000000000000000000000000000000000815260040161065d9061261f565b60405180910390fd5b6004600083815260200190815260200160002060009054906101000a900473ffffffffffffffffffffffffffffffffffffffff169050919050565b60006106ac82610b21565b90508073ffffffffffffffffffffffffffffffffffffffff168373ffffffffffffffffffffffffffffffffffffffff16141561071d576040517f08c379a0000000000000000000000000000000000000000000000000000000008152600401610714906126b1565b60405180910390fd5b8073ffffffffffffffffffffffffffffffffffffffff1661073c6110af565b73ffffffffffffffffffffffffffffffffffffffff16148061076b575061076a816107656110af565b610f17565b5b6107aa576040517f08c379a00000000000000000000000000000000000000000000000000000000081526004016107a190612743565b60405180910390fd5b6107b483836110b7565b505050565b606060006107c683610fab565b6107cf84610ac5565b6107d885610835565b6107e186610af3565b6040516020016107f49493929190612e73565b604051602081830303815290604052905061080e81611170565b60405160200161081e9190612fce565b604051602081830303815290604052915050919050565b606060006008600084815260200190815260200160002060020154905061085b816112d4565b915050919050565b61086d6007611435565b6000610879600761144b565b90506108853382611459565b6040518060800160405280600081526020016000815260200160058152602001600081525060086000838152602001908152602001600020600082015181600001556020820151816001015560408201518160020155606082015181600301559050506108fa816108f583610a3d565b611477565b50565b61090e6109086110af565b826114eb565b61094d576040517f08c379a000000000000000000000000000000000000000000000000000000000815260040161094490613062565b60405180910390fd5b6109588383836115c9565b505050565b61096681611043565b61096f57600080fd5b3373ffffffffffffffffffffffffffffffffffffffff1661098f82610b21565b73ffffffffffffffffffffffffffffffffffffffff16146109e5576040517f08c379a00000000000000000000000000000000000000000000000000000000081526004016109dc906130f4565b60405180910390fd5b600060086000838152602001908152602001600020600001549050600181610a0d9190613143565b6008600084815260200190815260200160002060000181905550610a3982610a3484610a3d565b611477565b5050565b60606000610a4a836112d4565b610a53846107b9565b604051602001610a649291906133d3565b6040516020818303038152906040529050610a7e81611170565b604051602001610a8e9190613490565b604051602081830303815290604052915050919050565b610ac083838360405180602001604052806000815250610d63565b505050565b6060600060086000848152602001908152602001600020600101549050610aeb816112d4565b915050919050565b6060600060086000848152602001908152602001600020600301549050610b19816112d4565b915050919050565b6000806002600084815260200190815260200160002060009054906101000a900473ffffffffffffffffffffffffffffffffffffffff169050600073ffffffffffffffffffffffffffffffffffffffff168173ffffffffffffffffffffffffffffffffffffffff161415610bca576040517f08c379a0000000000000000000000000000000000000000000000000000000008152600401610bc190613524565b60405180910390fd5b80915050919050565b60086020528060005260406000206000915090508060000154908060010154908060020154908060030154905084565b60008073ffffffffffffffffffffffffffffffffffffffff168273ffffffffffffffffffffffffffffffffffffffff161415610c74576040517f08c379a0000000000000000000000000000000000000000000000000000000008152600401610c6b906135b6565b60405180910390fd5b600360008373ffffffffffffffffffffffffffffffffffffffff1673ffffffffffffffffffffffffffffffffffffffff168152602001908152602001600020549050919050565b606060018054610cca9061257b565b80601f0160208091040260200160405190810160405280929190818152602001828054610cf69061257b565b8015610d435780601f10610d1857610100808354040283529160200191610d43565b820191906000526020600020905b815481529060010190602001808311610d2657829003601f168201915b5050505050905090565b610d5f610d586110af565b8383611830565b5050565b610d74610d6e6110af565b836114eb565b610db3576040517f08c379a0000000000000000000000000000000000000000000000000000000008152600401610daa90613062565b60405180910390fd5b610dbf8484848461199d565b50505050565b6060610dd082611043565b610e0f576040517f08c379a0000000000000000000000000000000000000000000000000000000008152600401610e0690613648565b60405180910390fd5b6000600660008481526020019081526020016000208054610e2f9061257b565b80601f0160208091040260200160405190810160405280929190818152602001828054610e5b9061257b565b8015610ea85780601f10610e7d57610100808354040283529160200191610ea8565b820191906000526020600020905b815481529060010190602001808311610e8b57829003601f168201915b505050505090506000610eb96119f9565b9050600081511415610ecf578192505050610f12565b600082511115610f04578082604051602001610eec929190613668565b60405160208183030381529060405292505050610f12565b610f0d84611a10565b925050505b919050565b6000600560008473ffffffffffffffffffffffffffffffffffffffff1673ffffffffffffffffffffffffffffffffffffffff16815260200190815260200160002060008373ffffffffffffffffffffffffffffffffffffffff1673ffffffffffffffffffffffffffffffffffffffff16815260200190815260200160002060009054906101000a900460ff16905092915050565b6060600060086000848152602001908152602001600020600001549050610fd1816112d4565b915050919050565b60007f01ffc9a7000000000000000000000000000000000000000000000000000000007bffffffffffffffffffffffffffffffffffffffffffffffffffffffff1916827bffffffffffffffffffffffffffffffffffffffffffffffffffffffff1916149050919050565b60008073ffffffffffffffffffffffffffffffffffffffff166002600084815260200190815260200160002060009054906101000a900473ffffffffffffffffffffffffffffffffffffffff1673ffffffffffffffffffffffffffffffffffffffff1614159050919050565b600033905090565b816004600083815260200190815260200160002060006101000a81548173ffffffffffffffffffffffffffffffffffffffff021916908373ffffffffffffffffffffffffffffffffffffffff160217905550808273ffffffffffffffffffffffffffffffffffffffff1661112a83610b21565b73ffffffffffffffffffffffffffffffffffffffff167f8c5be1e5ebec7d5bd14f71427d1e84f3dd0314c0f7b2291e5b200ac8c7c3b92560405160405180910390a45050565b6060600082511415611193576040518060200160405280600081525090506112cf565b6000604051806060016040528060408152602001613db760409139905060006003600285516111c29190613143565b6111cc91906136bb565b60046111d891906136ec565b67ffffffffffffffff8111156111f1576111f061235e565b5b6040519080825280601f01601f1916602001820160405280156112235781602001600182028036833780820191505090505b509050600182016020820185865187015b8082101561128f576003820191508151603f8160121c168501518453600184019350603f81600c1c168501518453600184019350603f8160061c168501518453600184019350603f8116850151845360018401935050611234565b50506003865106600181146112ab57600281146112be576112c6565b603d6001830353603d60028303536112c6565b603d60018303535b50505080925050505b919050565b6060600082141561131c576040518060400160405280600181526020017f30000000000000000000000000000000000000000000000000000000000000008152509050611430565b600082905060005b6000821461134e57808061133790613746565b915050600a8261134791906136bb565b9150611324565b60008167ffffffffffffffff81111561136a5761136961235e565b5b6040519080825280601f01601f19166020018201604052801561139c5781602001600182028036833780820191505090505b5090505b60008514611429576001826113b5919061378f565b9150600a856113c491906137c3565b60306113d09190613143565b60f81b8183815181106113e6576113e56137f4565b5b60200101907effffffffffffffffffffffffffffffffffffffffffffffffffffffffffffff1916908160001a905350600a8561142291906136bb565b94506113a0565b8093505050505b919050565b6001816000016000828254019250508190555050565b600081600001549050919050565b611473828260405180602001604052806000815250611ab7565b5050565b61148082611043565b6114bf576040517f08c379a00000000000000000000000000000000000000000000000000000000081526004016114b690613895565b60405180910390fd5b806006600084815260200190815260200160002090805190602001906114e6929190611ea1565b505050565b60006114f682611043565b611535576040517f08c379a000000000000000000000000000000000000000000000000000000000815260040161152c90613927565b60405180910390fd5b600061154083610b21565b90508073ffffffffffffffffffffffffffffffffffffffff168473ffffffffffffffffffffffffffffffffffffffff16148061158257506115818185610f17565b5b806115c057508373ffffffffffffffffffffffffffffffffffffffff166115a88461061c565b73ffffffffffffffffffffffffffffffffffffffff16145b91505092915050565b8273ffffffffffffffffffffffffffffffffffffffff166115e982610b21565b73ffffffffffffffffffffffffffffffffffffffff161461163f576040517f08c379a0000000000000000000000000000000000000000000000000000000008152600401611636906139b9565b60405180910390fd5b600073ffffffffffffffffffffffffffffffffffffffff168273ffffffffffffffffffffffffffffffffffffffff1614156116af576040517f08c379a00000000000000000000000000000000000000000000000000000000081526004016116a690613a4b565b60405180910390fd5b6116ba838383611b12565b6116c56000826110b7565b6001600360008573ffffffffffffffffffffffffffffffffffffffff1673ffffffffffffffffffffffffffffffffffffffff1681526020019081526020016000206000828254611715919061378f565b925050819055506001600360008473ffffffffffffffffffffffffffffffffffffffff1673ffffffffffffffffffffffffffffffffffffffff168152602001908152602001600020600082825461176c9190613143565b92505081905550816002600083815260200190815260200160002060006101000a81548173ffffffffffffffffffffffffffffffffffffffff021916908373ffffffffffffffffffffffffffffffffffffffff160217905550808273ffffffffffffffffffffffffffffffffffffffff168473ffffffffffffffffffffffffffffffffffffffff167fddf252ad1be2c89b69c2b068fc378daa952ba7f163c4a11628f55a4df523b3ef60405160405180910390a461182b838383611b17565b505050565b8173ffffffffffffffffffffffffffffffffffffffff168373ffffffffffffffffffffffffffffffffffffffff16141561189f576040517f08c379a000000000000000000000000000000000000000000000000000000000815260040161189690613ab7565b60405180910390fd5b80600560008573ffffffffffffffffffffffffffffffffffffffff1673ffffffffffffffffffffffffffffffffffffffff16815260200190815260200160002060008473ffffffffffffffffffffffffffffffffffffffff1673ffffffffffffffffffffffffffffffffffffffff16815260200190815260200160002060006101000a81548160ff0219169083151502179055508173ffffffffffffffffffffffffffffffffffffffff168373ffffffffffffffffffffffffffffffffffffffff167f17307eab39ab6107e8899845ad3d59bd9653f200f220920489ca2b5937696c31836040516119909190611ff8565b60405180910390a3505050565b6119a88484846115c9565b6119b484848484611b1c565b6119f3576040517f08c379a00000000000000000000000000000000000000000000000000000000081526004016119ea90613b49565b60405180910390fd5b50505050565b606060405180602001604052806000815250905090565b6060611a1b82611043565b611a5a576040517f08c379a0000000000000000000000000000000000000000000000000000000008152600401611a5190613bdb565b60405180910390fd5b6000611a646119f9565b90506000815111611a845760405180602001604052806000815250611aaf565b80611a8e846112d4565b604051602001611a9f929190613668565b6040516020818303038152906040525b915050919050565b611ac18383611ca4565b611ace6000848484611b1c565b611b0d576040517f08c379a0000000000000000000000000000000000000000000000000000000008152600401611b0490613b49565b60405180910390fd5b505050565b505050565b505050565b6000611b3d8473ffffffffffffffffffffffffffffffffffffffff16611e7e565b15611c97578373ffffffffffffffffffffffffffffffffffffffff1663150b7a02611b666110af565b8786866040518563ffffffff1660e01b8152600401611b889493929190613c50565b6020604051808303816000875af1925050508015611bc457506040513d601f19601f82011682018060405250810190611bc19190613cb1565b60015b611c47573d8060008114611bf4576040519150601f19603f3d011682016040523d82523d6000602084013e611bf9565b606091505b50600081511415611c3f576040517f08c379a0000000000000000000000000000000000000000000000000000000008152600401611c3690613b49565b60405180910390fd5b805181602001fd5b63150b7a0260e01b7bffffffffffffffffffffffffffffffffffffffffffffffffffffffff1916817bffffffffffffffffffffffffffffffffffffffffffffffffffffffff191614915050611c9c565b600190505b949350505050565b600073ffffffffffffffffffffffffffffffffffffffff168273ffffffffffffffffffffffffffffffffffffffff161415611d14576040517f08c379a0000000000000000000000000000000000000000000000000000000008152600401611d0b90613d2a565b60405180910390fd5b611d1d81611043565b15611d5d576040517f08c379a0000000000000000000000000000000000000000000000000000000008152600401611d5490613d96565b60405180910390fd5b611d6960008383611b12565b6001600360008473ffffffffffffffffffffffffffffffffffffffff1673ffffffffffffffffffffffffffffffffffffffff1681526020019081526020016000206000828254611db99190613143565b92505081905550816002600083815260200190815260200160002060006101000a81548173ffffffffffffffffffffffffffffffffffffffff021916908373ffffffffffffffffffffffffffffffffffffffff160217905550808273ffffffffffffffffffffffffffffffffffffffff16600073ffffffffffffffffffffffffffffffffffffffff167fddf252ad1be2c89b69c2b068fc378daa952ba7f163c4a11628f55a4df523b3ef60405160405180910390a4611e7a60008383611b17565b5050565b6000808273ffffffffffffffffffffffffffffffffffffffff163b119050919050565b828054611ead9061257b565b90600052602060002090601f016020900481019282611ecf5760008555611f16565b82601f10611ee857805160ff1916838001178555611f16565b82800160010185558215611f16579182015b82811115611f15578251825591602001919060010190611efa565b5b509050611f239190611f27565b5090565b5b80821115611f40576000816000905550600101611f28565b5090565b6000604051905090565b600080fd5b600080fd5b60007fffffffff0000000000000000000000000000000000000000000000000000000082169050919050565b611f8d81611f58565b8114611f9857600080fd5b50565b600081359050611faa81611f84565b92915050565b600060208284031215611fc657611fc5611f4e565b5b6000611fd484828501611f9b565b91505092915050565b60008115159050919050565b611ff281611fdd565b82525050565b600060208201905061200d6000830184611fe9565b92915050565b600081519050919050565b600082825260208201905092915050565b60005b8381101561204d578082015181840152602081019050612032565b8381111561205c576000848401525b50505050565b6000601f19601f8301169050919050565b600061207e82612013565b612088818561201e565b935061209881856020860161202f565b6120a181612062565b840191505092915050565b600060208201905081810360008301526120c68184612073565b905092915050565b6000819050919050565b6120e1816120ce565b81146120ec57600080fd5b50565b6000813590506120fe816120d8565b92915050565b60006020828403121561211a57612119611f4e565b5b6000612128848285016120ef565b91505092915050565b600073ffffffffffffffffffffffffffffffffffffffff82169050919050565b600061215c82612131565b9050919050565b61216c81612151565b82525050565b60006020820190506121876000830184612163565b92915050565b61219681612151565b81146121a157600080fd5b50565b6000813590506121b38161218d565b92915050565b600080604083850312156121d0576121cf611f4e565b5b60006121de858286016121a4565b92505060206121ef858286016120ef565b9150509250929050565b60008060006060848603121561221257612211611f4e565b5b6000612220868287016121a4565b9350506020612231868287016121a4565b9250506040612242868287016120ef565b9150509250925092565b612255816120ce565b82525050565b6000608082019050612270600083018761224c565b61227d602083018661224c565b61228a604083018561224c565b612297606083018461224c565b95945050505050565b6000602082840312156122b6576122b5611f4e565b5b60006122c4848285016121a4565b91505092915050565b60006020820190506122e2600083018461224c565b92915050565b6122f181611fdd565b81146122fc57600080fd5b50565b60008135905061230e816122e8565b92915050565b6000806040838503121561232b5761232a611f4e565b5b6000612339858286016121a4565b925050602061234a858286016122ff565b9150509250929050565b600080fd5b600080fd5b7f4e487b7100000000000000000000000000000000000000000000000000000000600052604160045260246000fd5b61239682612062565b810181811067ffffffffffffffff821117156123b5576123b461235e565b5b80604052505050565b60006123c8611f44565b90506123d4828261238d565b919050565b600067ffffffffffffffff8211156123f4576123f361235e565b5b6123fd82612062565b9050602081019050919050565b82818337600083830152505050565b600061242c612427846123d9565b6123be565b90508281526020810184848401111561244857612447612359565b5b61245384828561240a565b509392505050565b600082601f8301126124705761246f612354565b5b8135612480848260208601612419565b91505092915050565b600080600080608085870312156124a3576124a2611f4e565b5b60006124b1878288016121a4565b94505060206124c2878288016121a4565b93505060406124d3878288016120ef565b925050606085013567ffffffffffffffff8111156124f4576124f3611f53565b5b6125008782880161245b565b91505092959194509250565b6000806040838503121561252357612522611f4e565b5b6000612531858286016121a4565b9250506020612542858286016121a4565b9150509250929050565b7f4e487b7100000000000000000000000000000000000000000000000000000000600052602260045260246000fd5b6000600282049050600182168061259357607f821691505b602082108114156125a7576125a661254c565b5b50919050565b7f4552433732313a20617070726f76656420717565727920666f72206e6f6e657860008201527f697374656e7420746f6b656e0000000000000000000000000000000000000000602082015250565b6000612609602c8361201e565b9150612614826125ad565b604082019050919050565b60006020820190508181036000830152612638816125fc565b9050919050565b7f4552433732313a20617070726f76616c20746f2063757272656e74206f776e6560008201527f7200000000000000000000000000000000000000000000000000000000000000602082015250565b600061269b60218361201e565b91506126a68261263f565b604082019050919050565b600060208201905081810360008301526126ca8161268e565b9050919050565b7f4552433732313a20617070726f76652063616c6c6572206973206e6f74206f7760008201527f6e6572206e6f7220617070726f76656420666f7220616c6c0000000000000000602082015250565b600061272d60388361201e565b9150612738826126d1565b604082019050919050565b6000602082019050818103600083015261275c81612720565b9050919050565b600081905092915050565b7f3c73766720786d6c6e733d22687474703a2f2f7777772e77332e6f72672f323060008201527f30302f73766722207072657365727665417370656374526174696f3d22784d6960208201527f6e594d696e206d656574222076696577426f783d22302030203335302033353060408201527f223e000000000000000000000000000000000000000000000000000000000000606082015250565b6000612816606283612763565b91506128218261276e565b606282019050919050565b7f3c7374796c653e2e62617365207b2066696c6c3a2077686974653b20666f6e7460008201527f2d66616d696c793a2073657269663b20666f6e742d73697a653a20313470783b60208201527f207d3c2f7374796c653e00000000000000000000000000000000000000000000604082015250565b60006128ae604a83612763565b91506128b98261282c565b604a82019050919050565b7f3c726563742077696474683d223130302522206865696768743d22313030252260008201527f2066696c6c3d22677265656e22202f3e00000000000000000000000000000000602082015250565b6000612920603083612763565b915061292b826128c4565b603082019050919050565b7f3c7465787420783d223530252220793d223130252220636c6173733d2262617360008201527f652220646f6d696e616e742d626173656c696e653d226d6964646c652220746560208201527f78742d616e63686f723d226d6964646c65223e00000000000000000000000000604082015250565b60006129b8605383612763565b91506129c382612936565b605382019050919050565b7f57617272696f7200000000000000000000000000000000000000000000000000600082015250565b6000612a04600783612763565b9150612a0f826129ce565b600782019050919050565b7f3c2f746578743e00000000000000000000000000000000000000000000000000600082015250565b6000612a50600783612763565b9150612a5b82612a1a565b600782019050919050565b7f3c7465787420783d223530252220793d223530252220636c6173733d2262617360008201527f652220646f6d696e616e742d626173656c696e653d226d6964646c652220746560208201527f78742d616e63686f723d226d6964646c65223e00000000000000000000000000604082015250565b6000612ae8605383612763565b9150612af382612a66565b605382019050919050565b7f4c6576656c733a20000000000000000000000000000000000000000000000000600082015250565b6000612b34600883612763565b9150612b3f82612afe565b600882019050919050565b6000612b5582612013565b612b5f8185612763565b9350612b6f81856020860161202f565b80840191505092915050565b7f3c7465787420783d223530252220793d223630252220636c6173733d2262617360008201527f652220646f6d696e616e742d626173656c696e653d226d6964646c652220746560208201527f78742d616e63686f723d226d6964646c65223e00000000000000000000000000604082015250565b6000612bfd605383612763565b9150612c0882612b7b565b605382019050919050565b7f537472656e6768743a2000000000000000000000000000000000000000000000600082015250565b6000612c49600a83612763565b9150612c5482612c13565b600a82019050919050565b7f3c7465787420783d223530252220793d223730252220636c6173733d2262617360008201527f652220646f6d696e616e742d626173656c696e653d226d6964646c652220746560208201527f78742d616e63686f723d226d6964646c65223e00000000000000000000000000604082015250565b6000612ce1605383612763565b9150612cec82612c5f565b605382019050919050565b7f4c6966653a200000000000000000000000000000000000000000000000000000600082015250565b6000612d2d600683612763565b9150612d3882612cf7565b600682019050919050565b7f3c7465787420783d223530252220793d223830252220636c6173733d2262617360008201527f652220646f6d696e616e742d626173656c696e653d226d6964646c652220746560208201527f78742d616e63686f723d226d6964646c65223e00000000000000000000000000604082015250565b6000612dc5605383612763565b9150612dd082612d43565b605382019050919050565b7f53706565643a2000000000000000000000000000000000000000000000000000600082015250565b6000612e11600783612763565b9150612e1c82612ddb565b600782019050919050565b7f3c2f7376673e0000000000000000000000000000000000000000000000000000600082015250565b6000612e5d600683612763565b9150612e6882612e27565b600682019050919050565b6000612e7e82612809565b9150612e89826128a1565b9150612e9482612913565b9150612e9f826129ab565b9150612eaa826129f7565b9150612eb582612a43565b9150612ec082612adb565b9150612ecb82612b27565b9150612ed78287612b4a565b9150612ee282612a43565b9150612eed82612bf0565b9150612ef882612c3c565b9150612f048286612b4a565b9150612f0f82612a43565b9150612f1a82612cd4565b9150612f2582612d20565b9150612f318285612b4a565b9150612f3c82612a43565b9150612f4782612db8565b9150612f5282612e04565b9150612f5e8284612b4a565b9150612f6982612a43565b9150612f7482612e50565b915081905095945050505050565b7f646174613a696d6167652f7376672b786d6c3b6261736536342c000000000000600082015250565b6000612fb8601a83612763565b9150612fc382612f82565b601a82019050919050565b6000612fd982612fab565b9150612fe58284612b4a565b915081905092915050565b7f4552433732313a207472616e736665722063616c6c6572206973206e6f74206f60008201527f776e6572206e6f7220617070726f766564000000000000000000000000000000602082015250565b600061304c60318361201e565b915061305782612ff0565b604082019050919050565b6000602082019050818103600083015261307b8161303f565b9050919050565b7f596f75206d757374206f776e2074686973204e465420746f20747261696e206960008201527f7421000000000000000000000000000000000000000000000000000000000000602082015250565b60006130de60228361201e565b91506130e982613082565b604082019050919050565b6000602082019050818103600083015261310d816130d1565b9050919050565b7f4e487b7100000000000000000000000000000000000000000000000000000000600052601160045260246000fd5b600061314e826120ce565b9150613159836120ce565b9250827fffffffffffffffffffffffffffffffffffffffffffffffffffffffffffffffff0382111561318e5761318d613114565b5b828201905092915050565b7f7b00000000000000000000000000000000000000000000000000000000000000600082015250565b60006131cf600183612763565b91506131da82613199565b600182019050919050565b7f226e616d65223a2022436861696e20426174746c657320230000000000000000600082015250565b600061321b601883612763565b9150613226826131e5565b601882019050919050565b7f222c000000000000000000000000000000000000000000000000000000000000600082015250565b6000613267600283612763565b915061327282613231565b600282019050919050565b7f226465736372697074696f6e223a2022426174746c6573206f6e20636861696e60008201527f222c000000000000000000000000000000000000000000000000000000000000602082015250565b60006132d9602283612763565b91506132e48261327d565b602282019050919050565b7f22696d616765223a202200000000000000000000000000000000000000000000600082015250565b6000613325600a83612763565b9150613330826132ef565b600a82019050919050565b7f2200000000000000000000000000000000000000000000000000000000000000600082015250565b6000613371600183612763565b915061337c8261333b565b600182019050919050565b7f7d00000000000000000000000000000000000000000000000000000000000000600082015250565b60006133bd600183612763565b91506133c882613387565b600182019050919050565b60006133de826131c2565b91506133e98261320e565b91506133f58285612b4a565b91506134008261325a565b915061340b826132cc565b915061341682613318565b91506134228284612b4a565b915061342d82613364565b9150613438826133b0565b91508190509392505050565b7f646174613a6170706c69636174696f6e2f6a736f6e3b6261736536342c000000600082015250565b600061347a601d83612763565b915061348582613444565b601d82019050919050565b600061349b8261346d565b91506134a78284612b4a565b915081905092915050565b7f4552433732313a206f776e657220717565727920666f72206e6f6e657869737460008201527f656e7420746f6b656e0000000000000000000000000000000000000000000000602082015250565b600061350e60298361201e565b9150613519826134b2565b604082019050919050565b6000602082019050818103600083015261353d81613501565b9050919050565b7f4552433732313a2062616c616e636520717565727920666f7220746865207a6560008201527f726f206164647265737300000000000000000000000000000000000000000000602082015250565b60006135a0602a8361201e565b91506135ab82613544565b604082019050919050565b600060208201905081810360008301526135cf81613593565b9050919050565b7f45524337323155524953746f726167653a2055524920717565727920666f722060008201527f6e6f6e6578697374656e7420746f6b656e000000000000000000000000000000602082015250565b600061363260318361201e565b915061363d826135d6565b604082019050919050565b6000602082019050818103600083015261366181613625565b9050919050565b60006136748285612b4a565b91506136808284612b4a565b91508190509392505050565b7f4e487b7100000000000000000000000000000000000000000000000000000000600052601260045260246000fd5b60006136c6826120ce565b91506136d1836120ce565b9250826136e1576136e061368c565b5b828204905092915050565b60006136f7826120ce565b9150613702836120ce565b9250817fffffffffffffffffffffffffffffffffffffffffffffffffffffffffffffffff048311821515161561373b5761373a613114565b5b828202905092915050565b6000613751826120ce565b91507fffffffffffffffffffffffffffffffffffffffffffffffffffffffffffffffff82141561378457613783613114565b5b600182019050919050565b600061379a826120ce565b91506137a5836120ce565b9250828210156137b8576137b7613114565b5b828203905092915050565b60006137ce826120ce565b91506137d9836120ce565b9250826137e9576137e861368c565b5b828206905092915050565b7f4e487b7100000000000000000000000000000000000000000000000000000000600052603260045260246000fd5b7f45524337323155524953746f726167653a2055524920736574206f66206e6f6e60008201527f6578697374656e7420746f6b656e000000000000000000000000000000000000602082015250565b600061387f602e8361201e565b915061388a82613823565b604082019050919050565b600060208201905081810360008301526138ae81613872565b9050919050565b7f4552433732313a206f70657261746f7220717565727920666f72206e6f6e657860008201527f697374656e7420746f6b656e0000000000000000000000000000000000000000602082015250565b6000613911602c8361201e565b915061391c826138b5565b604082019050919050565b6000602082019050818103600083015261394081613904565b9050919050565b7f4552433732313a207472616e736665722066726f6d20696e636f72726563742060008201527f6f776e6572000000000000000000000000000000000000000000000000000000602082015250565b60006139a360258361201e565b91506139ae82613947565b604082019050919050565b600060208201905081810360008301526139d281613996565b9050919050565b7f4552433732313a207472616e7366657220746f20746865207a65726f2061646460008201527f7265737300000000000000000000000000000000000000000000000000000000602082015250565b6000613a3560248361201e565b9150613a40826139d9565b604082019050919050565b60006020820190508181036000830152613a6481613a28565b9050919050565b7f4552433732313a20617070726f766520746f2063616c6c657200000000000000600082015250565b6000613aa160198361201e565b9150613aac82613a6b565b602082019050919050565b60006020820190508181036000830152613ad081613a94565b9050919050565b7f4552433732313a207472616e7366657220746f206e6f6e20455243373231526560008201527f63656976657220696d706c656d656e7465720000000000000000000000000000602082015250565b6000613b3360328361201e565b9150613b3e82613ad7565b604082019050919050565b60006020820190508181036000830152613b6281613b26565b9050919050565b7f4552433732314d657461646174613a2055524920717565727920666f72206e6f60008201527f6e6578697374656e7420746f6b656e0000000000000000000000000000000000602082015250565b6000613bc5602f8361201e565b9150613bd082613b69565b604082019050919050565b60006020820190508181036000830152613bf481613bb8565b9050919050565b600081519050919050565b600082825260208201905092915050565b6000613c2282613bfb565b613c2c8185613c06565b9350613c3c81856020860161202f565b613c4581612062565b840191505092915050565b6000608082019050613c656000830187612163565b613c726020830186612163565b613c7f604083018561224c565b8181036060830152613c918184613c17565b905095945050505050565b600081519050613cab81611f84565b92915050565b600060208284031215613cc757613cc6611f4e565b5b6000613cd584828501613c9c565b91505092915050565b7f4552433732313a206d696e7420746f20746865207a65726f2061646472657373600082015250565b6000613d1460208361201e565b9150613d1f82613cde565b602082019050919050565b60006020820190508181036000830152613d4381613d07565b9050919050565b7f4552433732313a20746f6b656e20616c7265616479206d696e74656400000000600082015250565b6000613d80601c8361201e565b9150613d8b82613d4a565b602082019050919050565b60006020820190508181036000830152613daf81613d73565b905091905056fe4142434445464748494a4b4c4d4e4f505152535455565758595a6162636465666768696a6b6c6d6e6f707172737475767778797a303132333435363738392b2fa2646970667358221220426e03630f37d127ea8d18d7de3c89b72f887d0590336148e7b6b2c2d8d525ab64736f6c634300080a0033",
  "linkReferences": {},
  "deployedLinkReferences": {}
}